:020000041000EA
:1000000000200008CB0000100D0000002D010010A2
:1000100000000000000000000000000000000000E0
:100020000000000000000000000000002901001096
:10003000000000000000000029010010290100104C
:1000400029010010290100102901001029010010C8
:1000500029010010290100102901001029010010B8
:1000600029010010290100102901001029010010A8
:100070002901001029010010290100102901001098
:1000800010B5064C2378002B07D1054B002B02D06E
:10009000044800E000BF0123237010BDD402000813
:1000A0000000000074110010044B10B5002B03D0A9
:1000B0000349044800E000BF10BDC0460000000036
:1000C000D8020008741100107047FFF7FDFF72B6E8
:1000D0000F4C104DAC4209DA21686268A368043BFA
:1000E00002DBC858D050FAE70C34F3E70A490B4A50
:1000F0000020521A02DD043A8850FCDC0848094905
:100100000860BFF34F8F00F0E7F800F073F9FEE7E7
:100110007811001090110010D4020008CC040008DF
:100120000000000808ED00E0FEE7FEE700B504204F
:100130007146084202D0EFF3098001E0EFF3088036
:10014000043000F0DBFBFEE710B5002000F096FA6B
:1001500010BD7047E02370B54F4C9B00E2580F2351
:10016000D021072013409A001219890051580140EC
:1001700065D0042959D04948002B65D1B223B1225A
:100180000321DB00D200E558A358A6581B0F360FF9
:100190000B400E4204D0A258120F0A40012A01D18E
:1001A000EA0701D4032B11D1B0233D4ADB00E55807
:1001B000A158E658C904C90C00F0AEFDAD03AD0B63
:1001C0006843F101C90F013100F0A6FDE0239B0057
:1001D000E358344A9B069B0FD840334B1860334B8F
:1001E000D458D158240A090E013100F095FD304B46
:1001F000E1B21860013100F08FFD2E4B0400186051
:100200002D4B2E4918602E4BC01800F085FDFA21A9
:100210002C4B890018702C4BE01800F07DFD2B4B07
:1002200018602B4BC003186070BDC0218900525864
:100230001F210A40112A04D1802000029CE7254892
:100240009AE7FA20C00197E7012BBFD1C823C0224B
:100250000321DB00D200E558A358A6581B0F360F28
:100260000B400E4204D0A258120F0A40012A01D1BD
:10027000EA0701D4032BA9D1C022D200A358A15868
:10028000A5587F221F261340090A3140584300F029
:1002900043FD290C314097E70000264000366E01EF
:1002A00084050000000020408400000808100000C1
:1002B00088000008800000089000000840420F00FD
:1002C0003F420F0098000008E70300009400000878
:1002D0008C00000800127A0010B51D4800F0A8F844
:1002E000B022E02130201B4CD200A35889005B00D3
:1002F0005B08A35063588343635080235B04A3507F
:10030000154B164AE250A02204339201E250FF221C
:10031000134BE25000F098FCC02201215200A35878
:100320008B43A350FFF715FFFFF714FF0D4A802101
:10033000042000F00BFA0C4800F080F80B4B1B680F
:1003400051331B78002B02D0094800F0E3F810BDB0
:10035000C40E0010000026408405000001000200C9
:100360008C050000F002000800030008C804000823
:10037000900E001010B5902400F053F8074B640164
:100380001A5907491140074A0A431A51102259685D
:100390001142FCD000F049F810BDC04600002040DA
:1003A000FCFF00000100FA05F8B590250E4C6D0128
:1003B000070000F036F863590600DB439B0701D1C4
:1003C000FFF7D8FF80239B00E7506359074A1A4084
:1003D000074B13436351102362681A42FCD030006C
:1003E00000F023F8F8BDC04600002040FCFF0000EC
:1003F0000300FA0510B562B60348FFF7D5FF0020E9
:1004000000F08CFBFBE7C04600200010000000005D
:100410000230800803D001300238FCD1C046C0460B
:100420007047EFF3108072B6704780F31088704702
:10043000014B18607047C046C8040008024B1A6898
:10044000002A00D11860704780040008F7B52C4DD1
:100450001F002B68040000910192002B03D1B521ED
:10046000284800F03BFA2C23FF225C432B683D0018
:100470001C193B0A3F0CA760234F134063603B6885
:100480001540256031331B789D4204D3C4211F4899
:10049000FF3100F023FA3B681A00B032128855434E
:1004A0001A6A3233AD1825611B7865689D4204D302
:1004B000E0211648FF3100F011FA3B6880351B6AD5
:1004C0006D01A668ED186561330C09D0FF210F4F4F
:1004D0004900380000F002FA0D49380000F0FEF93A
:1004E00033041A0C1343AB60019BE361009B23624E
:1004F0000023A361089B002B01D01B782373F7BD59
:10050000800400087C0F0010C8040008E20F0010EF
:10051000FF010000F0B5040085B0002803D152218E
:10052000214800F0DBF96368032B03D954211E48EE
:1005300000F0D4F9E36A002B03D158211A4800F0E7
:10054000CDF9236B002B03D15921174800F0C6F9D0
:10055000A36802AD2B70154B22681B68E16ADB8E25
:10056000E0689B186B706368A26A03930095236927
:10057000266A676AFFF76AFF00213B000A000091C4
:100580003000FFF763FF216B280000F053F90023D0
:10059000EB56002B06DB1F2213401E3A9A40130035
:1005A000034A136005B0F0BD7C0F0010C8040008BA
:1005B00000E100E0002373B504000193984204D1E8
:1005C000D2212C48FF3100F089F92369002B04D196
:1005D000E9212848490000F081F96369002B04D122
:1005E000D4212448FF3100F079F9236A002B04D18B
:1005F000EA212048490000F071F96269D5682B0CA6
:1006000022D01B04136013681B4B20691B68B43392
:100610001B68C3181B68002B16DA01A900F060FBE9
:100620000026B0420CD10198E26903681E0CDBB2CF
:100630009A4205D9226A9B009B58002B00D098470C
:100640003100206900F012FBADB2002D09D06369C2
:100650001D6000251B68636AAB4205D09847656240
:10066000A56163691B6873BDA36A002BF8D0984726
:10067000F6E7C0467C0F0010C804000870B5084CAF
:1006800005002368002B04D1B2210648FF3100F099
:1006900025F92C20454320684019FFF78BFF70BDDA
:1006A000800400087C0F001070B50A4D04002B6810
:1006B00031331B78834204D8C4210748FF3100F04E
:1006C0000DF92B681A00B03210884443186A2018BC
:1006D00070BDC046C8040008E20F0010F8B5174B03
:1006E0000D001B6831331B78834225D9002923D0A4
:1006F0001F240B681C401FD1FFF7D6FF07002B6893
:100700000F4EDA0821003060686800F091FB21008C
:10071000380000F0ABFA21002A00306800F0C6FA79
:10072000041E07D10100306800F0A0FA0300200089
:10073000002B00D00348F8BD0348FCE7C8040008BC
:100740008C04000801018A0003018A0010B50C0026
:10075000002A07D100290DD1FFF7A6FF064B18602C
:10076000200010BD002905D004490C604A60FFF745
:10077000B5FFF6E70248F4E78C040008840400089B
:1007800003018A0070B51A4E050033680C001A0088
:1007900028321278012A15D18208072110008843D7
:1007A0000FD103202840C00084401B6892002033F2
:1007B0009B182200FF24844019684A4014404C4092
:1007C0001C6070BD5B8FDBB28B4203D17621094880
:1007D00000F084F8072080220540802033689201D1
:1007E0001B680006A4180543A400E550E9E7C046CD
:1007F000C8040008481000100A4B70B59B680A4EE8
:1008000010300D008400B34209D1002904D13821F1
:100810000648FF3100F062F83059355170BD044B85
:100820001859FBE700ED00E0000000084810001038
:1008300000000010F8B506000D00002841D0436804
:10084000032B03D93221204800F048F8002030560D
:10085000002828DB7178FFF795FF0024FF22002095
:100860000327944630567168C3B21F40FF006646A6
:10087000BA4089013140D243B940002815DB134EFC
:1008800083089B009B19C026B6009F593A4011432C
:1008900099510F4B9A680F4B9A4202D12900FFF7EA
:1008A000ABFF2000F8BD0C4CD8E70F263340083BC7
:1008B000074E9B089B009B19DE6932401143D961AA
:1008C000E7E7054CEDE7C0464810001000E100E006
:1008D00000ED00E0000000080100560070B50D00BA
:1008E000044C01001822200000F0AAFAA56101BE04
:1008F000FEE7C04698020008FEE7000002680A4BC7
:1009000010B5DA6142681A6282685A62C2689A62F5
:100910000269DA6242691A6382695A63C2699A6338
:10092000FFF7EAFF10BDC04698020008B0235B0540
:100930005A782120002A01D05878C0B27047B023DD
:100940005B059A89002A02D0988980B2704780207E
:100950004000FBE710B5074C236831331B78002BB0
:1009600004D1C4210448FF31FFF7B8FF2368186A97
:1009700010BDC046C8040008E20F001030B50400E6
:1009800085B00D00042803D927492848FFF7A6FFA2
:100990006B1E012B07D9FB222B1F134203D02449C6
:1009A0002248FFF79BFF234BA400E458042D01D0FD
:1009B000012D1AD100200FE0A3682B420BD1E36870
:1009C00029001A685B6802920193039302A82368C6
:1009D0009847194B1C606469002C04D0174B98424F
:1009E000EAD1012DE8D105B030BD022D06D1124B60
:1009F0001B68181EF7D01C6903E01C006369002BFC
:100A0000FBD10020002CEED0A3682B4209D1E36873
:100A100029001A685B6802920193039302A8236875
:100A200098472469EEE7C046DC090000AC100010CE
:100A3000DD0900009404000890040008FF00420053
:100A400010B5041E03D111491148FFF747FFF222E8
:100A5000104BD2011B68DB689A582260F022D20149
:100A60009A5862600C4A9A58A2600C4A9A58E260FE
:100A70000B4A9A5822610B4A9A5862610A4A9A585C
:100A8000A2610A4A9B58E36110BDC046CB0A000030
:100A9000AC100010C80400080478000008780000BA
:100AA0000C7800001078000014780000187800001E
:100AB00010B5041E03D110491048FFF70FFFF022B4
:100AC0000F4B61681B68D201DB689950A1680D4A21
:100AD0009950E1680C4A995021690C4A9950616912
:100AE0000B4A9950A1690B4A9950E1690A4A9950F9
:100AF0002168E832995010BDF30A0000AC100010D4
:100B0000C804000804780000087800000C78000091
:100B1000107800001478000018780000F7B507007E
:100B2000012803D940494148FFF7D8FE404D6B6882
:100B3000002B4AD1FFF775FC6B680190002B56D152
:100B40003C4E33681A0043321278002A07D09B6863
:100B5000E0331B68DB0602D53748FFF771FFFFF76C
:100B6000EEFE80235B00984246D1380000F088F901
:100B7000002433681A0043321278002A17D0002864
:100B800015D09B68E0331B68DB0610D5FFF7CEFE5F
:100B9000294B212808D032681300B0331988072365
:100BA0004B43126A9B18DB681800FFF781FF01981E
:100BB000FFF73BFC002C0ED16B68002B03D0082103
:100BC0000120FFF7DBFE2000FEBD01210800FFF73A
:100BD000D5FE041EAED06B68002B03D0022101208D
:100BE000FFF7CCFE154B9C42EDD0154CEBE70421F2
:100BF0000120FFF7C3FEA3E7FFF7ACFE3368B43371
:100C00001B68C0180368002B0BDB04230D4A116915
:100C10000B431361012F02D030BF0020A8E720BF93
:100C2000FBE70020054CA4E7A5020000AC10001073
:100C300094040008C8040008A80400080500420045
:100C4000FF00420000ED00E0C02280200649520073
:100C50008B58C0059B009B0803438B50802388580A
:100C60001B0603438B507047000026400B4B70B5AA
:100C70001B680500B4331B680C00C3181B68002BED
:100C800009DA0B0C03D006490648FFF727FE0020BF
:100C9000A4B26C6070BD0448FCE7C046C8040008FC
:100CA000D5020000E20F001001008A00036870B551
:100CB00005000C00002B0ADAC2600B0C03D00549BA
:100CC0000548FFF70BFE0020A4B2AC6070BD0348DE
:100CD000FCE7C046BB020000E20F001001008A00E2
:100CE00070B505000C1E03D199210848FFF7F6FDE9
:100CF000074B1B68B4331B68EB181B68002B03DA27
:100D00000020EB68236070BD0248FCE70F11001063
:100D1000C804000801008A00002243088B4274D3F3
:100D200003098B425FD3030A8B4244D3030B8B42EC
:100D300028D3030C8B420DD3FF22090212BA030CF5
:100D40008B4202D31212090265D0030B8B4219D3D6
:100D500000E0090AC30B8B4201D3CB03C01A5241F6
:100D6000830B8B4201D38B03C01A5241430B8B423E
:100D700001D34B03C01A5241030B8B4201D30B0327
:100D8000C01A5241C30A8B4201D3CB02C01A52414E
:100D9000830A8B4201D38B02C01A5241430A8B4211
:100DA00001D34B02C01A5241030A8B4201D30B02FA
:100DB000C01A5241CDD2C3098B4201D3CB01C01A14
:100DC000524183098B4201D38B01C01A524143091E
:100DD0008B4201D34B01C01A524103098B4201D30C
:100DE0000B01C01A5241C3088B4201D3CB00C01A79
:100DF000524183088B4201D38B00C01A52414308F1
:100E00008B4201D34B00C01A5241411A00D2014615
:100E1000524110467047FFE701B5002000F006F888
:100E200002BDC0460029F7D076E770477047C0463C
:100E300003001218934200D1704719700133F9E78B
:100E400030B50500002A00D130BD0C78013A6B1C8A
:100E50002C700131002C05D19A189A42F4D01C70E4
:100E60000133FAE71D00EDE7F8B5C046F8BC08BC51
:100E70009E467047F8B5C046F8BC08BC9E46704711
:100E800001B40248844601BC604700BFA5000008C9
:100E9000030000000100000001000000000000004D
:100EA00005036000040000000100000000000000D5
:100EB0000100000006046000080000006004000853
:100EC00049010010000020400000244000000040C4
:100ED00000000000000023400000304000003140CE
:100EE00000009F4000002240000010400202020269
:100EF000020202020210101D800017007500FF039D
:100F00000602063604102000000000007FC000002A
:100F100000040000000000000019324B647D0080D6
:100F20004000080B100000000000FF012002001F1D
:100F300000800004FF081018001000140018001CA6
:100F40004044484C50000000081000000800000019
:100F50000400000004100000001200000421000042
:100F6000002100000016000040114002C4130013CD
:100F70008013A013200000001C000000433A2F55EE
:100F8000736572732F766D65642F4D6F647573543E
:100F90006F6F6C626F785F312E312F6C6962726196
:100FA000726965732F70736F633673772D312E31CD
:100FB0002F636F6D706F6E656E74732F70736F63D8
:100FC0003670646C2F647269766572732F736F75F7
:100FD0007263652F63795F6970635F706970652EF6
:100FE0006300433A2F55736572732F766D65642FD6
:100FF0004D6F647573546F6F6C626F785F312E3113
:101000002F6C69627261726965732F70736F6336DA
:1010100073772D312E312F636F6D706F6E656E7427
:10102000732F70736F633670646C2F6472697665AA
:1010300072732F696E636C7564652F63795F697075
:10104000635F6472762E6800433A2F55736572733E
:101050002F766D65642F4D6F647573546F6F6C627E
:101060006F785F312E312F6C6962726172696573BE
:101070002F70736F633673772D312E312F636F6D41
:10108000706F6E656E74732F70736F633670646CFF
:101090002F647269766572732F736F757263652F33
:1010A00063795F737973696E742E6300433A2F55C9
:1010B000736572732F766D65642F4D6F647573540D
:1010C0006F6F6C626F785F312E312F6C6962726165
:1010D000726965732F70736F633673772D312E319C
:1010E0002F636F6D706F6E656E74732F70736F63A7
:1010F0003670646C2F647269766572732F736F75C6
:101100007263652F63795F737973706D2E6300432B
:101110003A2F55736572732F766D65642F4D6F642A
:101120007573546F6F6C626F785F312E312F6C69FD
:10113000627261726965732F70736F633673772D96
:10114000312E312F636F6D706F6E656E74732F70FB
:10115000736F633670646C2F647269766572732F77
:10116000736F757263652F63795F6970635F647213
:10117000762E630000000000000000100000000850
:101180008000000098110010800000081802000084
:10119000D4020008F801000000093D0000127A00A6
:1011A00000093D000000D00700093D00A00F00002D
:1011B00004000000A900001081000010F7B56E4D7A
:1011C00004002A68536800931300B033198807237A
:1011D0004B43126A9B181A68002AFCDA00F0E0F808
:1011E0002A681300B033198807234B43212800D005
:1011F00096E0116A5B180221D8680143D960D9686A
:10120000C9072FD508208446944460461600D96843
:10121000C06F019111688836081835680768491948
:101220000D683902FF273F040F40694689882D0A5F
:101230002D0639432943D960902103684F4D090198
:101240002B400B430360136830681B181868054077
:101250002943196013686246D26F9A18126832687F
:101260009B181B68444D2A681300B0331988072364
:101270004B43126A9B1800225A600423404A1169AA
:101280000B431361012C50D030BF2A681300B033D8
:10129000198807234B43126A9B181A68002AFCDA44
:1012A00000F07EF8212842D1296807220B00012492
:1012B000B0331B8800205A430B6AD318DD682542DF
:1012C0001CD0080008300D68C06F2C4E2818056827
:1012D000DB6835401B0C1B061B0C2B4303600B000B
:1012E000883318680B6818180B6A0568D318DB6810
:1012F0002E401B0E1B023343036020000B6A0221A9
:10130000D218D3688B43D3601B4B1A681300B033D9
:10131000198807234B43126A9B1800225A60FEBDAE
:10132000126A9B18174ADA609CE720BFADE70020DD
:10133000009BFC331B698342E6D1A320124B134967
:10134000134A144FC0000E681D5814680F6006271A
:101350001F503E20106010483E371F501F58002F6E
:10136000FCDA00980D4FFC3007610E60A321C90024
:101370005D5001201460C7E7C8040008FF00FFFFAC
:1013800000ED00E0A8040008000026400801264007
:10139000040126401E1F00001C050000AAAAAAAADC
:1013A00001B40248844601BC604700BF2D0900100B
:1013B000000000000000000000000000000000002D
:1013C000000000000000000000000000000000001D
:1013D000000000000000000000000000000000000D
:1013E00000000000000000000000000000000000FD
:1013F00000000000000000000000000000000000ED
:1020000000F80F086F7C01100D000000B171001086
:10201000B9710010C1710010C971001000000000FA
:10202000000000000000000000000000DD51011071
:10203000CD7C011000000000755201108552011086
:10204000CD7C0110CD7C0110CD7C0110CD7C011028
:10205000CD7C0110CD7C0110CD7C0110CD7C011018
:10206000CD7C0110CD7C0110CD7C0110CD7C011008
:10207000CD7C0110CD7C0110CD7C0110CD7C0110F8
:1022D000CD7C011079010210CD7C0110CD7C011064
:1022E00010B5054C237833B9044B13B10448AFF350
:1022F00000800123237010BD00360008000000009C
:102300009CDA08100C4B43B10C480D4910B5AFF3E3
:1023100000800C48036823B910BD0A48036833B92C
:102320007047094B002BF7D0BDE810401847064B0B
:10233000002BF5D0184700BF000000009CDA081001
:1023400004360008C430000800000000154B002BC4
:1023500008BF134B9D46A3F5803A00218B460F46DC
:102360001348144A121A20F011FE0F4B002B00D014
:1023700098470E4B002B00D0984700200021040006
:102380000D000D48002802D00C4812F027F920F06B
:10239000F1F82000290012F03DFE12F0F5FA00BF1E
:1023A0000000080000F80F0800000000714F011045
:1023B00000360008F08D0008DD4501100000000027
:1023C000536B03EBC10130B5946B0A894B89120A38
:1023D000DDB2FF2A4FEA132318BF013203B1013BDC
:1023E00004EBC00045EA0323A0F8A63090F8A4301F
:1023F00043EA0222A0F8A42030BD30B58D6B05EB76
:10240000C000B0F8A63013F0200320D14A6B95F835
:10241000E04092F82D20224312F0010F05D0013345
:10242000082B4FEA5202F7D1402301229A4014436D
:1024300085F8E04090F8A42042F48072A0F8A4202F
:102440000A68527F013A43EA0223A0F8A63030BD61
:10245000536B926B03EBC10102EBC0028B88B2F8A5
:10246000A000B2F8A220181ACB889B1A5B4300FB8D
:10247000003070472DE9F74F0B68D1F804C0B3F86E
:1024800008E01B7F8E8D0D6A0027AEEB030E6246BF
:102490003B46B3422DD3730000240093013B0193CC
:1024A000A3464FF6FF732246009EB24228D14FF654
:1024B000FF75AB4256D00D8D496A11F4807108BF8B
:1024C00002F1FF324FEA05251ABFB5FBF2F25108BF
:1024D000B5FBF2F202FB0313544394FBFBFB012414
:1024E0005B4404717F3300681B0A038003B0BDE8BE
:1024F000F08F9488A74238BF27460A320133C8E7D5
:1025000015F8018B08EB88080CEB4808B8F8048034
:10251000474523D122B315F8028C08EB88080CEB51
:102520004808B8F80490019EB2423DBF95F800807B
:1025300008EB88080CEB48084FF0000A38BFB8F8E1
:1025400004A007EB0908F145D04401D2F24505D3B8
:10255000C3453EBFAAEB09041346C3460132A3E7B5
:102560009146E0E700230371C0E72DE9F04F4C6A84
:1025700004F00303012B28D14F688D8D4FF0000C20
:102580003A466346AB4222D300221346964616468D
:1025900005F1FF3BAE4221D3098D14F480744FEA5C
:1025A000012119BFB1FBF5F14C0805F1FF35B1FB75
:1025B000F5F101FB03434A43012592FBFEF213446C
:1025C00005717F3300681B0A0380BDE8F08F968891
:1025D000B44538BFB4460A320133D3E7B7F80480B4
:1025E000C44511D19EB137F8069C5E4534BFB7F89B
:1025F0000EA04FF0000A0CEB0908D044C6453EBFC0
:10260000AAEB09023346C6460A370136C2E7B1468D
:10261000EBE74B6A03F00303012B2DE9F74F2AD1B7
:10262000D1F804E08C8D002672463346A34225D3B0
:102630000A2303FB04E300220A3B0193774600923E
:102640009046154604F1FF3BA5421ED3098D009B21
:102650000902B1FBF4F14A4392FBF8F801FB038352
:10266000002B4FF00102B8BF01FB043302717F332E
:1026700002681B0A138003B0BDE8F08F9588AE4254
:1026800038BF2E460A320133D0E7B7F804C066459A
:1026900011D19DB137F8069C5D4534BFB7F80EA047
:1026A000BEF804A006EB090CD444E0453EBFAAEBFB
:1026B00009020095E0460A370135C5E7019BB3F8EA
:1026C0000490E9E72DE9F04F85B00290486A00F0E8
:1026D0000303012B58D191F82E504C684FF0000E97
:1026E000AA4622467346AB4251D300226B1EA44633
:1026F0000192914617460393AF424FD3B1F828E0B9
:10270000029E91F82F704FEA0E2E10F480700ABFCF
:1027100005F1FF33BEFBF5FEBEFBF3FE0EFB02F838
:1027200098FBF9F8D6F80090019E8B8D0CBF84467B
:102730004FEA5E0C0EFB06C6464405EB85057F3668
:10274000360A04EB4504A9F80060254600269A45A0
:1027500041D300239C461D4607F1FF3BBD4243D3B6
:10276000498D090200285AD1013FB1FBF7F707FB59
:1027700003037A4392FBFCFC63447F331B0A029AF7
:10278000A9F802300123137105B0BDE8F08F9688D7
:10279000B64538BFB6460A320133A4E7BCF8043068
:1027A0009E4512D1AFB13CF8063C039EB74234BF00
:1027B000BCF80EB04FF0000B0EEB0308D844C14537
:1027C0003EBFABEB03020197C1460CF10A0C013787
:1027D00092E73B46E9E7B5F804E0764538BF764630
:1027E0000A350AF1010AB2E7B4F804E0764511D1DE
:1027F0009DB134F8068C5D4534BFB4F80EA04FF09F
:10280000000A06EB080ED644F4453EBFAAEB0802C8
:102810002B46F4460A340135A0E7A846EBE7B1FBA6
:10282000F7F77808A3E77FB50B46024618684D68AE
:102830000089ADF80000B3F85C00ADF80200B3F811
:102840005E00ADF80400188DADF80600588DADF8A7
:102850000800002493F82E008DF80D408DF80E40EE
:102860008DF80B005C6A93F82F008DF80C0093F83C
:1028700060008DF80A0004F00300012884BF0120E5
:102880008DF80E00200648BF0120C96B48BF8DF8A7
:102890000D0000240A26988D844204D3684619F05E
:1028A00075F804B070BD06FB0450808821F8140050
:1028B0000134F0E72DE9F04F90E818001A891B7FEA
:1028C00089B0D11AD318049390F82E30826B0391FB
:1028D000013B5FFA83FA90F82F300192591E02F102
:1028E000A005C9B205228020013AD2B2FF2A66D1E2
:1028F00003EB830801EB810C01334FEA4C0CDBB294
:10290000CCF100024FEA480803EB83035B00059219
:10291000C8F10002069200265A42029307923746F7
:102920005FFA86F9221D4FF0000E1088039B834248
:102930005FFA8EF42DD8B9F1000F11D0A14204D95D
:10294000059B32F803B0834523D2069B32F803B0CF
:1029500083451ED224B1079B32F803B0834518D2B9
:10296000CA4530D8A14203D9B2F80AB0834510D87D
:102970001CB132F80ABC83450BD2049BA5F8009029
:1029800083426C8003D9E88840F02000E88001375A
:102990000835042F02F106040BD80EF1010E5FFA80
:1029A0008EF0884202F10A02BFD90136F2B2924596
:1029B000B6D2019B83F8DF7009B0BDE8F08F05EB5C
:1029C000C206F08090E7A14204D9029B32F803B01E
:1029D0008345DED832F808B08345DAD814B9002927
:1029E000C2D1CAE732F80CB08345D2D8A142BBD8D5
:1029F000BFE72DE9F04F90F82E308FB000270093FD
:102A0000013B019390F82F300293013B0393836BBA
:102A100093F8DF200492A833BE464FF0060B0499CA
:102A2000FAB2914202D80FB0BDE8F08F426833F895
:102A3000061C059290F82F6033F8082C02FB06164E
:102A40000A217143069102F1FF3809A96FF0090CC0
:102A5000B8F1FF3F02D0019C444558DAA1F800E0EC
:102A6000A1F806E0A1F80CE00CF10A0CBCF1140F7F
:102A700008F1010801F10201EAD100244FF0FF3111
:102A8000A446A04609AD0BFB015604364FF0FF35B6
:102A900036F8029F09FB05880135022D4C4409FBDD
:102AA00001CCF5D101310229ECD1416A068D458D69
:102AB00011F480714FEA06264FEA052A4ED1894665
:102AC000019DB6FBF5F6039DBAFBF5F506FB0292F8
:102AD00006FB08F898FBF4F842447F32120A23F808
:102AE000082C33F8062C05FB021105FB0CFC9CFBA3
:102AF000F4FC8C440CF17F0C4FEA1C2CC4F307143B
:102B000023F806CC23F8044C0137083387E733F861
:102B1000065C0024013D6E1C02D0039EAE4209DA21
:102B20000BFB04F921F809E00134032C05F1010540
:102B3000F1D199E70BFB04F60796059E90F82F90CC
:102B40004FF00A0A0AFB046A069EB2440CFB09A96C
:102B5000079E39F8069C21F80690E5E70099B6FB38
:102B6000F1F60299BAFBF1F54FEA56096908ADE7AB
:102B70002DE9F04F8246806BDAF8342090F8DF3090
:102B800092F82CB08BB0009313B9BBF1000F31D089
:102B9000002380F8E030141D82F82D3001255B45BC
:102BA0002BD3009BA3BBDAF8382002F1A80492F8DB
:102BB000DF3002F1A00826460027BB4200F2D38195
:102BC00003F10056013E82F8DF3002EBC606002713
:102BD000BB4240F0E181DAF8343092F8DF4083F80C
:102BE0002C4092F8E02083F82D20043300229442F8
:102BF00040F009820BB0BDE8F08FE18892F82D60BB
:102C000005FA01F1314382F82D1008340133C6E78B
:102C1000BBF1000F1AD158465146FFF7EEFB009B5F
:102C20000BF1010B5B45F6D8DAF83810002201F100
:102C3000A00391F8DF008242B5D2D88810F47F4F0C
:102C40001CBF1879988001320833F2E700F1C803FD
:102C50000593002380F8C830009B012B32D1BBF1D3
:102C6000010F2FD1DAF83450002404350126059BDA
:102C70001F57524621463846FFF7EAFBDAF8343050
:102C80001B68834280F04D8151463846FFF7B5FB03
:102C90000134A34505F10805E9D8009B5B45C3D97C
:102CA000DAF838400025A034E3881B0603D55146E6
:102CB0002846FFF7A2FB009B0135AB4204F1080454
:102CC000F2D8B1E7DAF8387007F16403029307F13C
:102CD0007803069307F18C03039307F1D00307935E
:102CE00007F1D503049307F1DA030193DAF83430DE
:102CF00097F8DF6093F82C50AE423BD3B0460024E7
:102D0000142318F1FF3820D2AA000021029820F0E5
:102D10003DF9069BB2009918019BB14633444FF030
:102D2000000E4FF0FF0C0198181A002841DC039B9D
:102D300003EB0208013D6B1C002B40F3CD80079A8A
:102D4000049B91193344424644E003FB0872089205
:102D5000A94609F1FF394FF0FF34A145D1D05246C1
:102D6000494640460993FFF773FB089B43F8290047
:102D7000099BEEE7A8460024142318F1FF3803D27C
:102D800033462E461D46BFE703FB08720892B14644
:102D900009F1FF394FF0FF34A145EED052464146CC
:102DA00048460993FFF754FB089B43F82900099B09
:102DB000EEE741F804ED03F801CDB4E74FF0000071
:102DC00003F8010D4FF0FF3001F8010D6FF00040E6
:102DD00042F8040D0498181A0028EFDC28464FF03A
:102DE000FF3C431C06D1079B1B57591C66D1019B16
:102DF0001D559FE7029B53F82030089307EB800096
:102E0000C64631464FF0FF3401394B1C002B16DC0F
:102E1000039B53F824103346013B5A1C002A32DC32
:102E2000029B53F825301944029B43F82510049B5C
:102E30004FF001021A55019BA4461857D1E7049B95
:102E40005B56DBB914234B43C258069B53F8213021
:102E5000D21A089BD21A5EF8043C9A42BEBF079B66
:102E60004EF8042C03F801C0621C0AD0039B5EF8E4
:102E7000042C53F824309A42B8BF0C46AEF1040E2D
:102E8000C2E70C46FAE7049AD2568AB1019AD056A4
:102E9000029A52F8202002EB010E029A42F820E03A
:102EA000069A069852F82320521A40F82320B3E7D6
:102EB000039A039852F82320521AF6E7019AD35640
:102EC0001355079B1C578EE7019B13F909305A1CB9
:102ED0001CBFDB1983F8C89009F1FF3909F1010320
:102EE000002BF1DC009B5B45BFF4BCAEDAF834503C
:102EF000002404350126059B524619572046FFF74A
:102F0000A7FADAF834301B6883421BD251462046B8
:102F1000FFF773FA009B0134A34205F10805EAD8D4
:102F2000BBE6DAF83820EB8892F8E01006FA03F3F3
:102F30000B4382F8E030059B524621461857FFF7B5
:102F40003FFAA5E6DAF83820EB8892F8E01006FAA6
:102F500003F30B4382F8E030059B52461957204695
:102F6000FFF72EFAD6E716F8021C072911D9013B04
:102F7000BB420ED002EBC30191F8A6100729F6D888
:102F800003F1140502EBC50503CD46F8080C46F81D
:102F9000041C0137083610E602EBC705AE4202D129
:102FA0000137083414E634F804CCB5F8AC100CF44E
:102FB0007F4E01F47F4086450AD38CEA010111F46B
:102FC0007F4F1ED134F8020CB5F8AE10884218D9E4
:102FD00034F8061C009105F1A80EBEE8030034F891
:102FE00008BC34F8029C44F8041CBDF8001044F8F6
:102FF000080CA5F8A8B0A5F8AA10A5F8ACC0A5F8CB
:10300000AE900835CAE7D1005D184144086843F81E
:103010003200486868600132E9E5C30708D50B68EB
:1030200013604B6853600B6893604B68D360103239
:10303000830704D50B6813604B685360083243075D
:1030400004D50B8813804B8853800832030704D5BE
:103050000B6813604B6853600832C30641BF0B68AE
:1030600013604B68536070472DE9F341456E4B8800
:1030700001931446EB070A88009207460E4613D5C3
:103080002188208901F08CFF23882381009B2380E5
:10309000009061886089019A01F082FF63886381F2
:1030A000019B638001901034A80711D5C5F3074830
:1030B00021880098424601F07FFF618820800090BF
:1030C0004246019801F078FF083424F8060C01907C
:1030D000690707D5214601AB6A4607F1540018F08D
:1030E000A2FD08342A070CD5009A238822801344B5
:1030F0005B08019A00936388628013445B08019324
:103100000834EB060BD52188009801F05CFF61883C
:1031100000902080019801F056FF01906080009B94
:103120003380019B738002B0BDE8F0812DE9F04F40
:103130000368866B9B6A96F8DF1087B00DF10C0B65
:103140000024A036009305460394CBF80440CBF846
:10315000084032462346994204D9908810F47F4FA4
:1031600018BF01340133032B02F10802F3D16B6A5B
:103170006F6E03F0030A544528BF544617F0FF0F43
:1031800015D1AA6B009BA83208330021802051453D
:1031900055D12B6883F82C40002C68D193F8272058
:1031A00022F0010283F8272007B0BDE8F08FC7F3B3
:1031B0000727FF0000232A6BA34212680AD10023CD
:1031C00080205345DDD05BF8231001B9D0803A440C
:1031D0000133F6E711464FF00009D14512D14FF007
:1031E0000008C14520D05BF8281021BB3146686E2D
:1031F0000193FFF712FF06AB03EB8808012348F8A1
:103200000C3C10E0B1F806E0F08886450FD10A4684
:10321000284631460193FFF727FF06AB03EB8909E8
:10322000012349F80C3C019B08360133C3E73944BC
:1032300009F10109D1E73A4408F10108D1E7A142B7
:1032400023F8020C0FD232F8086C23F8086C32F81D
:10325000066C23F8066C32F8046C23F8046C32F820
:10326000026C23F8026C0131083208338FE7012227
:1032700098E72DE9F347048DD0F864800B8800931C
:1032800091460134002218F0010F82460F464FEAA2
:103290005406019200F09780B9F80010A9F80030A8
:1032A000F218914284BF1B190093009BB9F80800E3
:1032B000A9F8081072189A423CBF091900198A1916
:1032C000904282BF1B19009309198319994288BF44
:1032D0000019009A01F064FE844298BF001B009020
:1032E00009F1100518F0020F19D0009A2B88B118B7
:1032F0008B4284BF121900920098F21882423CBFA0
:103300001B192B802988884234BF0B1A431AB342F9
:103310005BD34A4639464046FFF77FFE083518F032
:10332000040F19D0009B2A88F1188A4284BF1B1908
:103330000093009BB11899423CBF12192A802A8839
:10334000934234BFD31A9B1AB34249D34A463946F3
:103350004046FFF762FE083518F0080F15D00099B7
:103360002A8873189A4284BF631800930098B31890
:1033700083423CBF12192A802B8825F8081B03447E
:103380005B089C4298BF1B1B009318F0100F15D0D0
:10339000009A2B88B1188B4284BF121900920098B2
:1033A0001E4486423CBF1B192B80298801F00BFE6E
:1033B000844298BF001B0090009B2B80009B3B80A9
:1033C00002B0BDE8F0874D468CE7C8F3074201F034
:1033D000F3FD844298BF001B0090009B2B809DE76B
:1033E00001AB6A4629460AF1540018F01CFC009B08
:1033F0009C429CBF1B1B0093009B2B80ABE72DE9DD
:10340000F74F90F8049009F1FF33DBB2FD2B8B46A8
:1034100006D9DBF8303083F8049003B0BDE8F08FB4
:103420000B6BD1F864A01C7905681E68FF2CCAF3E9
:10343000072817D04C4528BF4C469BF86B30E70057
:10344000032B4FEAC8082F44334616D0BD4216D08E
:103450001A46294658460193FFF706FE019B083598
:103460004344F3E70024E8E71A4629465846019307
:10347000FFF7FFFE019B08354344BD42F4D108FB32
:1034800004664C45C5D2324639465046FFF7C5FD65
:10349000083746440134F4E710B5044603F07BFADC
:1034A00080B96368DB792BB9204603F09EFA636824
:1034B0000122DA71204601F00EFE2046BDE81040E0
:1034C00003F030BA10BD000070B50446FFF7E4FF0A
:1034D000054688BB236893F87E301BB1204602F076
:1034E00097FC05462368DA7B012A08D1B3F87E30C1
:1034F000B3F5807F03D1204602F012FB0543236819
:103500001A7C012A07D193F88D30012B03D1204674
:1035100002F021FB0543204602F074FA23680543BC
:1035200019680B48B1FBF0F1052202F02BFF0646AB
:10353000204602F00BFA38B9204601F0B2FC2046D2
:1035400001F014FC284670BD002EF5D0013EEFE7D7
:1035500040420F0070B50B689B7B83420E4613D927
:103560006C235843CB681D181B5893F827309B07D2
:103570001FD495F86A30012B08D0022B10D04FF4DD
:10358000DB710D4817F00AF8012407E0284602F025
:10359000D6F831460446284602F00DF8204670BDA4
:1035A000284602F05AF831460446284602F028F828
:1035B000F4E71124F2E700BFD89C021070B503684D
:1035C0009B7B064600245D1E0BB9204670BD31462C
:1035D0002846FFF7BFFF2B460443F4E7026838B5DF
:1035E000956D297809B1112038BD546DD4F8403358
:1035F000DB0718D42B4602221249204615F06CF83E
:10360000002038BDD4F8403313F0010F14BF134627
:103610000023934200F1FF3002D10028F2D1E2E70B
:10362000002BE0D1E6E70823C4F8F810C4F84033D3
:1036300011680548B1FBF0F1052202F0A3FE034A30
:10364000EBE700BF8C9D021040420F000200060114
:1036500010B538B1FFF7C2FF0446192016F096FFE7
:10366000204610BD0124FBE721B11AB1012803D087
:10367000022805D0012070475368996000207047E8
:103680005368D960FAE70000072938B505460C46AB
:1036900004D940F28B31034816F080FF0121A1408C
:1036A000696038BD169D0210072970B506460D46A3
:1036B000144604D940F2CE310D4816F06FFF34F0B5
:1036C0000F0304D040F2CF31094816F067FF094BD1
:1036D0001B6893F87D10AD0073580F22AA4004F0C8
:1036E0000F0423EA0203AC401C43745070BD00BFBA
:1036F000169D0210748C0008072970B505460C460B
:10370000164604D940F29221164816F047FF16F0EB
:10371000E00F04D040F29321124816F03FFF124B05
:103720001B6898695969281AC00900011F23032CD6
:1037300000EB010506EA030609D84258E400A3405D
:1037400022EA030306FA04F42343435070BD043C09
:103750006A68E400A34022EA0303A64033436B6097
:1037600070BD00BF169D0210748C0008F8B5846906
:1037700006460025336893F879309D4204F1080429
:1037800000D3F8BD00230E2214F8041C54F8080CD2
:1037900002F0F7FB14F0EDFD14F8041C074654F892
:1037A000080CFFF771FF384614F0E7FD0135E1E73B
:1037B00070B5C369056859689A8B91F82E10686DC9
:1037C00092B29142996893F8242091F82240D0F85F
:1037D00000640A4405EBC4048CBFD27F92F8232016
:1037E000616A0A430B49724011407140C0F80014ED
:1037F00095F88520012A0BD19B69D0F800151A7A1B
:10380000636A1A43044B4A4013404B40C0F80035EA
:1038100070BD00BF7F00C0037F00C007053A0028CD
:1038200008BF0120012A98BF40000123102934BF9E
:1038300000221D228B409B1AB3FBF0F0002808BF2A
:103840000120704710B5C469A3689A7F22F08001F7
:10385000A28B646894F82E4092B2944294BF1B8A63
:10386000DB894A1F012A9ABF5B084FF000720022D1
:10387000002B08BF012342EA0142013B13430268C7
:10388000526DC2F8003210BD10B5C1698B688A8BC9
:10389000496891F82E1092B291429A7F9988044615
:1038A00002F07F02D88998BF188AFFF7B7FF236814
:1038B0005B6D80B2C3F8140310BD000038B54368D7
:1038C0009B6804460BB1C06998472068436D00228D
:1038D0004FF48371C3F8F820C3F8F010D3F8F01058
:1038E000A168CD6AC3F880510125C3F88C51C3F893
:1038F000B0220D6CC3F8B4528D6AC3F88852C968FF
:10390000C3F8801290F8713043B190F878302BB141
:1039100090F86E10006E042302F033FB2368A26857
:103920002B4891695A6DC2F8F0110321C2F8401377
:103930001968284BB1FBF3F1052202F023FD25683D
:103940006B6D03F550710A68D20701D428B901E004
:1039500000283BD10822C3F840234FF48372C3F8F8
:10396000F020D3F8F020A1680222C3F8F8208A687A
:10397000C3F880220022C3F8B022C86BC3F8B40297
:10398000496AC3F8881295F8713043B195F87830D8
:103990002BB1052395F86E10286E02F0F2FA236819
:1039A000A2685B6D5169C3F8F0110121C3F88C1155
:1039B000126BC3F88021D3F8002242F05062C3F8A2
:1039C000002240F20132C3F8402338BD0138BAE783
:1039D000400D030040420F0038B5C469002384F84D
:1039E00024306268A38B52680A219BB201FB032337
:1039F000A361054601F0AFFF012384F82330284678
:103A0000BDE83840FFF75ABF017900680B23062252
:103A100002F0B7BA2DE9F041C569EE68D6F800802A
:103A20000746002473799C4208EBC40004D30123A9
:103A300085F82130BDE8F0813946FFF7E5FF013414
:103A4000F0E710B501460446002002F049FA20468E
:103A5000FFF7AEFE2046FFF7DDFF204601F07BFFBB
:103A6000E369022283F823202046BDE81040FFF7D7
:103A700025BF38B58A68017992F86E30126804461D
:103A8000006802F07EFA14F074FC21790546206883
:103A9000FFF7FAFD2846BDE8384014F06EBC2DE96A
:103AA000F041C569EE68D6F80080074600247379B6
:103AB0009C4208EBC40004D3002385F82130BDE804
:103AC000F0813946FFF7D5FF0134F0E7C36993F879
:103AD0002130012B01D1FFF7E2BF704710B504463A
:103AE000006800231A4690F86C10C06D02F049FA85
:103AF000236893F871306BB12046FFF737FE2068DA
:103B000090F8783033B1002390F86E10006E1A46AA
:103B100002F037FA23685B6D00222046C3F8A82222
:103B2000BDE81040FFF7D2BF38B50C46054601206E
:103B300001F088FF2046FFF7C9FF224628460021F2
:103B400002F013FA2046FFF79FFE2046BDE83840FA
:103B5000FFF778BE70B5144605460E4601201146A3
:103B600001F070FF2046FFF7B1FF2246314628469C
:103B700002F0FBF92046FFF74DFF2046FFF718FE45
:103B80002046FFF781FE2046BDE87040FFF75ABE91
:103B90002DE9F04F14466C234343E26852F803804A
:103BA0008DB002EB0309B8F8063004905943642342
:103BB000B1FBF3F3089323685B7C012B4FF0000506
:103BC0000CBF032301238DF828508DF829508DF860
:103BD0002A508DF82C508DF82D508DF82E500693CC
:103BE000B9F82C309D422CD399F86B60043EF6B2A4
:103BF00008F11F0100200BAF0AAB012E1B5C0B70FC
:103C000016D8C25D0A71256895F88750012D0FD12D
:103C1000B8F80EE0B8F810500EFB03F36A43934275
:103C200080F02C81B2FBFEF27F2A28BF7F220A702F
:103C3000069B0130834201F10101DDD10DB0BDE8E9
:103C4000F08FD9F804300A2202FB0533039399F868
:103C50002E309D4235BF08F11F0308F12303019365
:103C6000019334BF0AAB0BAB0593002740220A2116
:103C7000019BDA55236893F88500012805D19B89BB
:103C800003984B4307FB03031A72069B0137BB42A1
:103C9000EED1072307934023029322462946049836
:103CA000FFF758FF14F065FB236893F86CB0DE6DE6
:103CB000BBF1070F824604D940F2BF21734816F0CA
:103CC0006DFC734B1B689A695B69B61AF60936017D
:103CD000BBF1030F06EB030298BFF658236888BFB9
:103CE0005668D86D93F86C104FF0000288BFABF1A6
:103CF000040BFFF701FD504614F03FFB14F039FBB5
:103D000022684FEACB0B92F86CA0D36D26FA0BF623
:103D100006F01F06BAF1070FF6B2834606D94FF434
:103D20007B715A48099316F039FC099B584A12686E
:103D300092F87D209B582268099392F86C10D06D00
:103D4000FFF7A2FC2068062290F86C10C06DFFF708
:103D5000ABFC584614F011FB012016F017FC14F0D0
:103D600008FB099B83464FEA8A0A206823FA0AFA6D
:103D700090F86C10C06D0AF00F02FFF795FC2368F5
:103D8000324693F86C10D86DFFF7B6FC584614F025
:103D9000F4FA2046FFF720FE23683E4819683E4BA0
:103DA000B1FBF3F1052202F0EDFA6268936919069E
:103DB0005CD4029B0199C3F3470623F00103002062
:103DC0004FF00A0E6FEA030B2268039B92890EFBE9
:103DD00002F242439A5A089B934282BF0A7802EA4F
:103DE0000B020A700A78324308BF01220A70D4F825
:103DF00000C09CF885A0BAF1010F08D1BCF80CC036
:103E0000039B0EFB0CFC00FB0C3C8CF808200130E3
:103E1000874201F10101D7D1079B013B079323D1D1
:103E2000059B019A1F44013A187812F8011F884235
:103E300038BF197001339F42F6D1224629460498B3
:103E4000FFF788FE2046FFF7C7FD23681148196871
:103E5000114BB1FBF3F1052202F094FA6268936909
:103E60001B0607D40135BBE6029616E70028A0D052
:103E700001389BE70028F5D00138F0E7B3FBF5F3F4
:103E80007F2B28BF7F230B71D2E600BF169D021047
:103E9000748C0008400D030040420F002DE9F041F2
:103EA000C56904460068A969436D4FF48372C3F87D
:103EB000F020D3F8F0200022C3F88822D3F8D020D5
:103EC000AB689E880123B340013B92B2934228BF66
:103ED00013460B80437C012B5DD195F82430012BD8
:103EE00059D895F82430012B04D940F26D7140481F
:103EF00016F054FB95F82430AA690133DBB285F83B
:103F000024302768E069BB890A2101FB0323AB61E8
:103F1000816895F82430828B40688E7F90F82E005F
:103F200092B29042DBB294BF0D8ACD89012B26F06C
:103F3000800603D0022B2BD0002301E097F88830B5
:103F40008988A6F10508B8F1010F98BF5B001D44F0
:103F500028463246FFF762FCB8F1010F9ABF6D08A0
:103F60004FF000730023002D08BF01257A6D43EA4E
:103F70000646013D80B23543C2F81403C2F8005230
:103F80002046FFF715FC2046BDE8F041FFF796BC40
:103F900097F88930D4E795F8223043B995F8233063
:103FA000012B04D12046BDE8F04101F0DABC2046E7
:103FB000FFF775FDE369988B5A6880B2928D0130E6
:103FC00090420CD2214601F08BFF2046FFF75CFCAB
:103FD0002046FFF737FC2046FFF71CFDD0E793F89B
:103FE0002230012BDED12046BDE8F04101F077BD43
:103FF000F99C02102DE9F047064600254FF06C0AA7
:1040000033689B7B9D4201D3BDE8F087F4680AFBCF
:10401000054494F86A30012B03D10027A38D9F42F9
:1040200001D30135ECE7D4F808904FF0000899F877
:104030000530984501D30137F0E73146D9F8000043
:10404000FFF717FD08F10108F1E7000070B504461D
:10405000FFF7D0FF204602F023F8236893F8713071
:1040600093B1A5690026206890F879309E4205F149
:10407000080576D390F8783033B190F86E10006E62
:104080000523002201F07DFF23685B6D4FF4803231
:10409000C3F804220025A268C3F8F450C3F8C05244
:1040A000C3F82053C3F88852D16BC3F8B412116A15
:1040B000C3F890129168C3F88012C3F88452116B50
:1040C000C3F88011916CC3F8D0121269C3F894221E
:1040D00014F04FF92368064693F86C10D86D2A4601
:1040E000FFF7E2FA2368042293F86C10D86DFFF70B
:1040F00003FB304614F041F92168A2684B6DC3F808
:1041000000535069C3F8F00191F88610C3F81013FA
:10411000516CC3F8A012916E41F00101C3F8A812CE
:10412000D169C3F884114FF08071C3F88412C3F8C9
:10413000A412D16CC3F88811516BC3F80014916BB1
:10414000C3F8001552681A60636893F8240021468A
:10415000013802F055F8E369074A83F824501A60E1
:1041600070BD0A23062215F8041C55F8080C01F04E
:1041700008FF013677E700BF9D3E0010012303FAD8
:1041800001F10139C0EB00338B4206D9C0EB0020AE
:1041900081422CBF0520002070470620704770B573
:1041A000046894F91E30002B30DAE589A18890F874
:1041B0006B6000222846FFF731FB0146284601F0DC
:1041C0005AFE054628B9E089A1884000FFF7D6FFCE
:1041D0000546043E012E16D8268AE389B34212D042
:1041E000A18800223046FFF719FB0146304601F056
:1041F00042FE20B9208AA1884000FFF7BFFF854218
:104200000CBF0546002565F07F05A57770BD000051
:104210002DE9F04F13688BB06C2500929A7B0190CA
:104220008242019A88BF93F87F0005FB02F5009A4D
:10423000D2F80C8008EB0502029292F86A2086BF41
:10424000B0FA80F040090120012A009A5268926970
:1042500018BF01201206894600F16881002840F04D
:10426000668158F8052093F8831082F8221093F89D
:104270008130012B2BD0009A01984946FFF788FC2A
:10428000009B1B6893F88520012A00F09480009918
:104290000198FFF749FC0098FFF7D3FB009BA54866
:1042A0001B6805221968A44BB1FBF3F102F06AF810
:1042B000009B5A6893691B0600F13381009B0198AB
:1042C000012249460BB0BDE8F04F02F063B8009AF6
:1042D00001984946FFF75CFC009BDB6903939B68F0
:1042E000049393F82200009B1B685A7C012A0CBFA0
:1042F000032201220892039AD2F804C09CF86B2092
:10430000043AD2B2059293F885200692049A0026C8
:1043100002F11F0A7F2132461AF8017BBA4238BFE8
:104320003A46B94228BF3946059F012F0ED8039F50
:104330009CF82EE0BF8BBFB2BE4507D89AF8037039
:10434000BA4238BF3A46B94228BF3946069F012FC4
:1043500007D1BCF82C7007974FF0000B079FBB45A7
:1043600019D30136089CF7B2A742D5D3002887D0CD
:1043700093F884608E4283D903EBC003996A1B6A69
:10438000B1FBF3F35A437E2A3FF67AAF049B013820
:1043900083F822009BE7B3F80CE0DCF8047006FB1E
:1043A0000EBE0A240EFB04770BF1010B3F7AB942D3
:1043B00028BF3946D2E7597C9B8905930129029988
:1043C00058F80520496803910599B2F806804FF026
:1043D0000A0303FB01F108910399099301EB030A16
:1043E00014BF2021222102F11F050A4407924FF039
:1043F000000B642602992B783AF80A2C91F82E705B
:10440000504619464FF0000EBE4522D37243B2FB10
:10441000F8F264325143B1FBF9F18B4228BF0B46ED
:1044200005F8013B03FB09F3C3F1320C50464FF092
:10443000000E774518D8029B93F86B30043B012B94
:1044400027D9059B9B44089B9A44079BAB42D1D13B
:104450001DE710F802CC8C453CBF30F80A2C6146B1
:104460000EF1010E0A30CFE730F80A1C10F8022CCA
:104470007143B1FBF8F164314A439A422ABF624466
:104480000022B2FBF6F20EF1010E00F8022C0A3007
:10449000CFE7099B0398EA7807EB0B015943039B8D
:1044A0000B44415A02980A33808D06909E4610466E
:1044B000BC46069CA44527D37143B1FBF8F1643197
:1044C0004843B0FBF9F0824228BF0246EA7002FB83
:1044D00009F2C2F1320C4FF0000E7745B1D933F832
:1044E0000A0C13F8021C7043B0FBF8F0643041432F
:1044F00091422ABF61440021B1FBF6F10EF1010E99
:1045000003F8021C0A33E8E71EF8024C04948442C4
:104510003CBF3EF80A1C20460CF1010C0EF10A0EBD
:10452000C7E700283FF4CAAE0138C3E611200BB03C
:10453000BDE8F08F400D030040420F00072938B559
:1045400005460C4604D940F2CE31084816F026F84C
:10455000074B1B6893F87D10A4006B580F2202FADA
:1045600004F423EA04046C5038BD00BF169D021009
:10457000748C000870B5054601F092FD13F0F9FE49
:104580002B68044693F86F10586EFFF7D7FF2B681F
:1045900093F87010986EFFF7D1FF204613F0EDFEF0
:1045A0002868A968436D4FF48372C3F8F020002493
:1045B0000222C3F8F820C3F88041C3F884414A6E50
:1045C000C3F888214FF44072C3F88C212B4AC3F8FA
:1045D000002490F885200AB1C3F800458A6DC3F81D
:1045E000F021C3F80442C3F88042C3F88442C3F800
:1045F0008842C3F89042D3F8942222F48052C3F840
:1046000094222322C3F8A0224FF08072C3F8A42280
:10461000D3F8A8228E6E22F0805222F48012324308
:10462000C3F8A822164AC3F8B02242F21022C3F8F7
:10463000B4221F22C3F8C042C3F8D022C3F80043FB
:1046400090F88F20C3F810234FF44272C3F814433C
:10465000C3F82043C3F840230A6D1A606B6893F8CF
:1046600025002946013801F0CBFD284601F017FA54
:10467000EB69044A83F824401A6070BD800E030180
:1046800001030300FD4A00102DE9F74F8846116829
:104690008B7B8342D36806464FF06C0707FB0637D7
:1046A00088BF91F88D0097F86A3086BFB0FA80F025
:1046B00040090120022B53689B6918BF01201C068A
:1046C000154600F19E80002840F09C80BB8D009331
:1046D0001369D7F804E0302202FB06336422DB883A
:1046E00008FB03F3B3FBF2F301934B7C0446012B6D
:1046F0000CBF4FF0030C4FF0010C0A20A1464FF005
:10470000400A00220AE08B8904FB032343430EEB9B
:10471000030B2EF8039001328BF808A0009B9A42FD
:10472000F1D30134A445ECD14FF0070A4FF0200932
:104730004FF0400B2946304601F025F9284601F09C
:1047400047F92B6831481968314BB1FBF3F1052269
:1047500001F018FE6A689369190608D4D7F804C0F6
:1047600000216FEA0B0B00221FE09946E2E70028C8
:10477000F4D00138EFE72B689B890A2001FB032363
:1047800043430CEB030E01983CF8033098423EBFC4
:104790009EF8083003EA0B038EF808309EF80830C4
:1047A00049EA03038EF808300132009B9A42E2D3B3
:1047B00001318C42D7D1BAF1010AC9F34703CB4684
:1047C000D3D12946304601F0DEF8284601F000F941
:1047D0002B680E4819680E4BB1FBF3F1052201F06E
:1047E000D1FD6B6801E018B101389A691206FAD45C
:1047F0002B4602224146304603B0BDE8F04F01F09F
:10480000C9BD112003B0BDE8F08F00BF400D03000B
:1048100040420F00C36901689B691B7A03F07F0265
:1048200091F88B309B0503F440031343024A1A436B
:104830004B6DC3F800247047800E030110B5044689
:10484000FFF7E8FF03685B6D4FF48372C3F8F02055
:10485000D3F8F0200222C3F8F82043689B680BB11C
:10486000C06998472268A168536D086D18600120DF
:10487000C3F880011120C3F880024FF08070C3F8A4
:1048800084020020C3F8C0020620C3F8880228482A
:10489000C3F8B00241F21010C3F8B402C96DC3F8F6
:1048A000F01140F20331C3F840131168214B224844
:1048B000B1FBF3F1052201F065FD23685B6D03F5A3
:1048C00050710A68D20700D558BBD3F84023D107EE
:1048D00029D4A068426D1A6040F201310022C3F869
:1048E0008C11C3F88021C3F88022C3F88422C3F856
:1048F000C022C3F88822114AC3F8B02242F2102223
:10490000C3F8B422026EC3F8F0211F22C3F8D022EC
:104910004FF48372C3F8F020D3F8F020C3F84013AB
:1049200010BD0138CDE74FF44272C3F84023D0E701
:104930000101010040420F00400D0300010303008C
:10494000017900680423002201F01BBB0179006893
:104950000A23062201F015BB70B5044601790068F0
:104960000023062201F00DFB13F003FD26682479D5
:10497000072C054604D940F28B31054815F00EFE90
:104980000123A34073602846BDE8704013F0F5BCD6
:10499000169D021038B504460179006800230622EE
:1049A00001F0EFFA25682479072C04D940F28B3105
:1049B000034815F0F3FD0123A3406B6038BD00BF31
:1049C000169D021070B5C3695B691E685D79044667
:1049D00025B9E369012283F8212070BD30462146C4
:1049E000FFF7B4FF0836013DF2E770B5C3691B69F4
:1049F0001E685D79044625B9E369012283F8212008
:104A000070BD30462146FFF79BFF0836013DF2E7B7
:104A100010B501460446002001F062FA2046FFF777
:104A2000D1FF2046FFF7E1FF204600F094FFE36945
:104A3000022283F823202046BDE81040FFF7FEBE87
:104A400070B5C3695B691D685C79064604B970BDC1
:104A500028463146FFF79EFF0835013CF6E770B562
:104A6000C3691B691D685C79064604B970BD284698
:104A70003146FFF771FF0835013CF6E710B5C36911
:104A800093F82130012B044608D1FFF7D9FF2046C7
:104A9000FFF7E5FFE369002283F8212010BDFFF74F
:104AA000EDBF000038B50C460546022000F0CAFFF5
:104AB0002046FFF7E3FF28462246002101F055FA81
:104AC000E369996823688D88586DCB89C0F81453C1
:104AD0009A1E12FB05F2002BCA8018BF1A46897F66
:104AE000054B08BF012203EA014343F05063013A3A
:104AF0001343C0F8003238BD00007FFFF8B504460C
:104B0000C36922689D68516DE8880026C1F8F86085
:104B10004FF48376C1F8F060D1F8F060D1F8D0603E
:104B2000D1F8D470BFB217FA86F6B0429F6994BF2D
:104B3000001A801B3880507C012834D193F824005F
:104B4000012830D893F824000130C0B283F8240043
:104B500090890A2606FB0070986193F82400EB897F
:104B6000C0B2002B08BF0123012815D0022817D09E
:104B7000A87F464A02EA004242F05062013B1343DA
:104B8000C1F800322046FFF71DFF2046FFF742FE26
:104B90002046FFF753FE10E092F894201344E7E715
:104BA00092F89520FAE793F822202ABB93F8233055
:104BB000012B21D1204600F0D4FE636822689B6956
:104BC00013F0800F0DD1A168536D096D19604FF47A
:104BD0004071C3F88C112E49C3F800141F21C3F88B
:104BE000D012536D4FF48372C3F8F020D3F8F02045
:104BF0000222C3F8F820F8BD2046FFF721FFE5693F
:104C0000002385F824306B685968AB8BAA8B01327E
:104C100092B2AA839BB20A2202FB03131344AB6134
:104C200095F82030013BDBB285F8203095F8203034
:104C30001BB16B6908336B61A4E7EB7F013BDBB20F
:104C4000EB77EB7F204603F0FF0693B1FFF707FFFA
:104C50002B6908332B612046FFF7C7FE6A6892F87C
:104C60002F3085F8203092F82E10936803EBC103A3
:104C7000E1E7FFF7F4FE85F8216095F82230012B7B
:104C800098D1204600F02BFF97E700BF00007FFF80
:104C9000800E030110B5046894F91E30002B06DA6B
:104CA000A188E08901F0E7F860F07F00A07710BDEF
:104CB00030B50C884D88AC4224BF0023CB71C37E35
:104CC00023449D420ADDCB7982899A4297BF002313
:104CD00001334B724C80CB71002030BD13689B7E3A
:104CE0001BB9837E2B449C42F6DC90F826204B7A3D
:104CF0002402C2F58070544343EA052300FB0343BA
:104D00001A0C1B0A4A804B72E6E770B51368D66826
:104D10005C7C6C2202FB0060012C42689C894FF095
:104D20000A0303FB012103FB04F44FF000030CBF53
:104D3000032501251A46013308884A729D4248809E
:104D4000CA712144F7D170BDCA686C2303FB0023EC
:104D500070B59B8D05460E465C1E03B970BD32468C
:104D600021462846FFF7D1FF2346F5E738B503680B
:104D70009B7B05465C1E03B938BD29462046FFF7DC
:104D8000E3FF2346F6E72DE9F04FCB686C2404FBE4
:104D900000340B68B4F868205B7C87B0012B0CBF33
:104DA00003230123019302F00F035B00029302F03F
:104DB0001003039302F080030027049302F480633E
:104DC000BC4605930026B24641E00B68B4F868B0D3
:104DD000B3F80CE0D4F81090039A65680CFB0E6EE3
:104DE0000A230BF4407BBBF5007F03FB0EF0029B14
:104DF00008BF676903FB0EF809EB080308BF774497
:104E000042B135F800E029F808E035F800E0A3F8F1
:104E100002E00433049A6AB135F800E0A3F800E038
:104E2000B4F868E00EF4407EBEF5007F08BF87F856
:104E300000A00233059A4AB135F800E0A3F800E07B
:104E400035F800E0A3F802E0285A98800136A38DD7
:104E50009E42BAD3019B0CF1010C6345B2D10B68A1
:104E600093F87E30032B0FD194F86A30012B0BD1CD
:104E7000D4F80480E66800250C274FF00A09A38DBA
:104E80009D4207FB056202D307B0BDE8F08F23689F
:104E900009FB05F0598838F8000016F070FE01355E
:104EA000EDE738B503689B7B05465C1E03B938BD4A
:104EB00029462046FFF767FF2346F6E770B5B0F8AE
:104EC0006840158880690E8804F44074B4F5007F4A
:104ED0000ED11C78360244EA0524C0F58075704373
:104EE00005FB0400040C000A148018700C8070BDCF
:104EF000C0F58074704304FB0500C0F30F201080E0
:104F0000088070BD0888538830B515885580A84240
:104F10002C4684BF04462846A34228BF234683422A
:104F20000D88158038BF03460B8030BDB0F868305F
:104F300003F4C053B3F5805F70B50B8814880BD1B0
:104F40005588908854806619304403449B089580A6
:104F5000088810800B8070BD23445B08F8E72DE9BA
:104F6000F041B0F868609846F30605460F461446CF
:104F700002D5FFF7C7FF0434320606D52246434662
:104F800039462846FFF79AFF0234730506D52246B4
:104F900039462846BDE8F041FFF7C8BFBDE8F081BB
:104FA000884282BF034608461946914228BF1146EF
:104FB000884238BF08467047C2F58073504301FBF2
:104FC0000300000A7047814201D90130704738BFA1
:104FD00000F1FF30704738B56C235843CB681D583B
:104FE0001C1895F82710A28D636821F0070185F839
:104FF0002710114611F1FF3113D294F86B100629D6
:105000001CD801238B4013F02C0F10D113F0120F7A
:1050100002D1580612D55200697FE0691DF0B6FF33
:105020000CE0987920F0030098710A33E2E794F8D5
:105030006A30012B02D1E3696A7F1A7094F86B2001
:10504000931E032B07D8002385F82C3094F86410A6
:1050500009B1216B0B71636A190704D5216D002317
:10506000EB822B834B75616E11F0FF0F1AD0052A6E
:105070000ED194F86A30022B0AD1236BC1F30722B8
:105080001B688020D200D8801344D8801344D88075
:105090004B0707D5236B04F154001968BDE838406D
:1050A00016F0BEBD38BD6C23C96858430B1893F881
:1050B0006B20022A01D0052A0CD11A6C52B19288B9
:1050C000C2F3090232B10A58586C00215182918210
:1050D00016F076BB704738B503689B7B05465C1EAF
:1050E00003B938BD29462046FFF775FF29462046FB
:1050F000FFF7D9FF2346F2E713B50446084602A995
:10510000238921F8083D1346628816F014FDBDF886
:10511000003023819DF80230A3769DF80330E376BA
:105120009DF80430237702B010BD10B500238B80AA
:105130004C88827E0B8822449342C4BF1B1B8B8009
:1051400010BD2DE9F0470368D0F81CE093F8272044
:10515000416822F00102002483F827202746724686
:10516000A4464FF00108858DA2EB0E094D4513D8DA
:10517000B0F86A1040F2024291420BD19A6A83F869
:105180002C70D48090F82F10B4FBF1F301FB134482
:1051900013805480BDE8F08791F806A01D891E7F1A
:1051A000BAF1000F1CD1354416780EB1013E1670CD
:1051B0008E88B54222BF5D7F157081F806C01578D4
:1051C0001DB981F8068001374C468D792DB193F8D1
:1051D000275045F0010583F827500A310132C2E714
:1051E000AD1BE1E7F0B590E80C0092F82710D0F87D
:1051F0001CE021F0010182F827107446818DA4EB98
:105200000E05B5EB410F00D3F0BD15F001059F79F8
:1052100051890ABF1189022601263742177F0CBF28
:10522000C919C91B27780FB1013F27709F88B94260
:1052300005D3517F2170997921EA0601997121786E
:1052400011B9997931439971997931421EBF92F818
:10525000271041F0010182F8271005B10A3301340B
:10526000CCE7F0B590E8880089B002AA009200224D
:105270008DF8042093F82720C56912F0010F044629
:105280001A890E46818D187F0CBF1218121A2878C1
:1052900008B1013828708C4600201CF1FF3C30D248
:1052A00038B95A7F2A7093F8272022F0010283F838
:1052B00027202A789ABB93F8272042F0010283F82E
:1052C000272093F82730DA0709D594F86B30022BA2
:1052D0002FD0032B03D121466846FDF79AF994F8A5
:1052E000643023B1324621466846FEF788F82468C8
:1052F0009DF8040084F82C000023834224D309B0D5
:10530000F0BDB7F804E072452CBF4FF0000E4FF02F
:10531000010E87F806E040EA0E000A37BDE70028D4
:10532000CFD06268002011F1FF31CAD390710A32E8
:10533000F9E7636A5B072146684602D5FDF79AF8EC
:10534000CDE7FDF712F9CAE7009AA56AD9000A4429
:105350006E18116845F83310516871600133CCE75D
:105360002DE9F04F90E8180093F82720D0F81C9012
:1053700090F82E50D3F828C022F0010285B083F8AF
:10538000272009EB05060022494693461746964614
:105390000396868DA1EB0908464527D817FB0EF129
:1053A000C9B2012988BFFF2183F82C1093F82C1073
:1053B00001290ED11FFA8BF192B215FB01F5ACF861
:1053C000002000202A44ACF80210ACF80400ACF82D
:1053D0000620BEF1000F00D12FB193F8272042F034
:1053E000010283F8272005B0BDE8F08FA679029668
:1053F0001E7F0196029EB3F808A006BB019EB24430
:105400000E780EB1013E0E70A688B24521BF5E7FB8
:105410000E700026A6710E7816B94FF00106A6711F
:10542000A6794EB1454593BF039E013742460EF122
:10543000010E98BFA1EB060B0A340131A9E7019ECA
:10544000AAEB060ADCE72DE9F0478CB00568D0F836
:105450001CE02F89436806AA049200228DF81420CC
:1054600095F8272012F0010F2A7F04460E4608BF48
:10547000D219818D90F82E0094F82F8018BFBA1A97
:105480009EF80070824617B1013F8EF800709C466E
:1054900000271AF1FF3A56D200EB800003EB4003DD
:1054A000002018F1FF385DD207B140B96B7F8EF84C
:1054B000003095F8273023F0010385F827309EF857
:1054C0000030002B5CD195F8273043F0010385F8BC
:1054D000273095F82730D8070DD5636A990603D58C
:1054E000214604A8FDF7EEF8636A5A0603D5214663
:1054F00004A8FDF798F994F8643023B132462146A8
:1055000004A8FDF77CFF9DF8141085F82C10FF29E6
:1055100002D000238B4240D3636A1B0710D5226D53
:10552000736800921B6A03AA05F1280104F1480080
:1055300016F092FABDF80C30EB82BDF80E302B83DA
:105540000CB0BDE8F087BCF804904A452CBF4FF082
:1055500000094FF001098CF8069047EA09070CF1A1
:105560000A0C96E7B3F804C062452CBF4FF0000C5C
:105570004FF0010C83F806C040EA0C000A3390E7B4
:10558000002FA6D00028A4D062680B46002113F19A
:10559000FF339ED391710A32F9E7049AAF6AD800BB
:1055A000024407EB000E106847F833005068CEF84D
:1055B00004000133AEE790F86B30013B052B0ED8A9
:1055C000DFE803F003050507090BFFF7BABDFFF796
:1055D00048BEFFF7C5BEFFF736BFFFF703BE7047F3
:1055E00010B50446FDF766F92046FDF702FA20469D
:1055F000FDF7BEFA2046BDE81040FDF797BD00005C
:1056000010B490F86B30042B02460C4603D0052BE7
:1056100007D0012B09D1214610465DF8044BFFF756
:1056200090BD5DF8044BFFF7DBBF40F2E11102488B
:105630005DF8044B14F0B2BF679D02100B689A89A5
:105640000A235343C1180B4410B59A88898804462D
:105650008088FFF7A5FCA08010BD2DE9F04FB0F8C1
:10566000683087B003F00F0203920A68527C012A67
:105670000CBF03220122049203F44073426800929B
:10568000B3F5007F0269019204460E464DD145698B
:10569000039B4FF000095B000593CDF80890A846E6
:1056A000DDF804A0002719E043465246594620463B
:1056B000FFF755FC324659462068FFF7F9FA029B7E
:1056C0005946034320680293FFF72FFD059B9A4438
:1056D000B8F1000F01D008F101080137009B0A2240
:1056E00002FB073BA38D9F42DED3316800988A8975
:1056F0000A2707FB0200039F0090BE46019F50004F
:105700000EFB0070019005B11544049A09F10109DE
:105710004A45C4D14A7C012A03D1646813F1FF339E
:1057200005D2029807B0BDE8F08F0025B0E720460B
:10573000314600930A34FFF781FF009BEEE72DE925
:10574000F04FB0F86830D0F80CA089B003F00F0229
:1057500005920A68527C012A0CBF0322012206929C
:1057600003F4407342680292B3F5007F026903922A
:1057700004460D466ED14769059B4FF0000B5B0058
:105780000793CDF810B0039B029E0193B9464FF0EA
:1057900000083CE04B46019A31462046FFF7DFFB0C
:1057A0002B6893F87E30032B19D1236830885988F1
:1057B000524616F0EEF9424651462068FFF79CFC2F
:1057C00094F86B30062B08D12B682268198B13894B
:1057D0004B436421B3FBF1F353810AF10C0A2A46CF
:1057E00031462068FFF764FA049B31460343206882
:1057F0000493FFF79AFC019B079A13440A3601931E
:10580000B9F1000F01D009F1010908F10108A38DD8
:105810009845BFD3296802988A890A2606FB0200A8
:10582000059E0290B646039E50000EFB006003905A
:1058300007B11744069A0BF1010B5A45A3D14A7CD4
:10584000012A03D1646813F1FF3305D2049809B02B
:10585000BDE8F08F00278FE72046294601930A34E0
:10586000FFF7ECFE019BEEE7072970B505460C46F5
:10587000164604D940F29221164814F08FFE16F015
:10588000E00F04D040F29321124814F087FE124B2F
:105890001B6898695969281AC00900011F23032C45
:1058A00000EB010506EA030609D84258E400A340CC
:1058B00022EA030306FA04F42343435070BD043C78
:1058C0006A68E400A34022EA0303A64033436B6006
:1058D00070BD00BF169D0210748C0008072970B5BA
:1058E00006460D46144604D940F2CE310D4814F058
:1058F00055FE34F00F0304D040F2CF31094814F0C4
:105900004DFE094B1B6893F87D10AD0073580F22B4
:10591000AA4004F00F0423EA0203AC401C43745075
:1059200070BD00BF169D0210748C0008072938B5A1
:1059300005460C4604D940F28B31034814F02EFE84
:105940000121A140696038BD169D02104368986925
:1059500000F0800070474268936943F080039361D0
:1059600070474368C0699A6922F080029A610022F8
:1059700080F8222080F823209A8801329A80DB6800
:1059800003B11847704738B54B689B691B061BD499
:105990000B689B7B834219D96C234343CA68D51893
:1059A000D35893F8274014F002040FD195F86A30C9
:1059B000012B03D0022B04D0204638BDFEF7B4F8EB
:1059C000FAE7FFF76FF8F7E71124F5E70124F3E7AB
:1059D000426810B5946914F0800411D1C3695B6802
:1059E00093F86A30012B04D0022B06D04FF0FF3021
:1059F00010BDFEF726F8204610BDFFF709F8FAE7BC
:105A0000112010BD436870B59C6914F080040546F0
:105A100016D1C6694FF0FF302B689B7B9C4200D3A8
:105A200070BD29462046FFF7AEFF38B9012386F83E
:105A300022302846BDE87040FFF7CABF0134EBE7CB
:105A4000112070BD38B5CB6993F8252082420546F8
:105A50000C4623D093F82530DBB2012B0CD0022B5F
:105A60000ED0E36983F8255093F82530DBB2012B83
:105A70000AD0022B0DD038BD0846FEF72FF8F0E70C
:105A80000846FFF70CF8ECE72046BDE83840FEF783
:105A9000DDBA2046BDE83840FEF76CBD38BD2DE9C3
:105AA000F341002445690646274633685B899C42DA
:105AB00005F1080502D302B0BDE8F08112F059FCEF
:105AC00015F8041C0097804600230E2255F8080C98
:105AD00013F04CF8404612F050FC0134E5E770B585
:105AE000C3699D7F04460135002623689B7B9D4248
:105AF0000DD2636821469E612846FFF744FF20B916
:105B00002046BDE87040FFF763BF0135EDE7204652
:105B1000BDE87040FFF725BFCB6908461B681847F2
:105B2000F8B5002506462C466C2731688B7B9C42D5
:105B300001D32846F8BDF36807FB043393F86A30B5
:105B4000012B06D1324691F87D102046FEF760FB0E
:105B500005430134E9E7F8B5002506462C466C27D5
:105B600031688B7B9C4201D32846F8BDF36807FB64
:105B7000043393F86A30022B06D1324691F88A102A
:105B80002046FEF781FD05430134E9E72DE9F04F9A
:105B90006C23CA6843438BB0D45802EB0309A37F3C
:105BA000009388460AC941F270754A6893F8243018
:105BB000B2FBF3F3B3FBF5F5B5F57A6F38BF4FF4ED
:105BC0007A654FF47A72824605F2E735B3FBF2F05C
:105BD000B5FBF2F5EA07B1F87620ADF81C20D8F84D
:105BE0000820ADF82200B2F87020ADF81E20224641
:105BF0004FF0000632F8020B06924FF00C02ADF89F
:105C00002000A28040F6FF72E2807F4AB3FBF2F3ED
:105C10009BB2E3812382A67791F87D1042465046DD
:105C200048BF0135FEF7F4FAD8F80010D9F804702F
:105C300091F88530012B99F82E300BD03246304642
:105C40004FF00A0C984254D303EB830307EB43074E
:105C500000200AE007F10A0C30463246B6469E455F
:105C60003AD303EB830307EB4307E37F8DF826303A
:105C700094F822308DF8270001EBC30104F10E0BDC
:105C80008B6A049303A84FF47A735A43CDF814B087
:105C900040F6FF73B2FBF3F2ADF8242015F01EFDC1
:105CA000E38903909D4288BFE58199F86B30043BFE
:105CB000012B4FD8D8F8003099F82EE093F88530B2
:105CC000012B20D000231A4619464FF00A0C7145CB
:105CD000C0F0908000211DE01CF802BC58453EBF7A
:105CE0003CF80A2C764658460EF1010E0CF10A0CCF
:105CF000B5E70CFB00FE37F80EE072453CBF0646E8
:105D0000724601309EE700230A3719461A461846A4
:105D1000704564D394F823008DF8271004F1100126
:105D20008DF82600059103A84FF47A7101934A4338
:105D300040F6FF71B2FBF1F2ADF8242015F0CEFC75
:105D4000039A904282BF019B03901E46238A9D4284
:105D500088BF2582D8F800302C4D93F87D10A842DA
:105D60008CBF0625002542465046FEF751FAD8F86A
:105D7000003094F82220CDF814B003EBC2039B6AE4
:105D80000493E37F8DF8263099F86B30043B012BA8
:105D90000AD899F82E309E4221BF94F823308DF80E
:105DA000263004F11003059303A815F0CDFC012360
:105DB000A08003FA00F001389DF80030E080A3775E
:105DC0004846FEF7ECF9D8F80030424693F87D10CB
:105DD0005046FEF71DFA28430BB0BDE8F08F17F8C8
:105DE00002CC61453EBF37F80A2C034661460130BC
:105DF0000A378DE70CFB01F0385A82423CBF0B4654
:105E00000246013163E700BF60E31600880D010020
:105E1000F8B50024064625466C2733689B7B9C42D8
:105E200001D32846F8BDF36807FB043393F86A30C2
:105E3000012B04D131462046FFF7A8FE054301346B
:105E4000EBE770B5C4680646002533689B7B9D422E
:105E500000D370BD94F86A30012B04D0022B06D019
:105E60006C340135F1E72046FEF799F9F8E7204652
:105E7000FEF710FFF4E79F282AD940F2FE3399423B
:105E80001FD940F2FF33B1FBF3F3C3EB83239942F5
:105E900020D040F2FF13B1FBF3F3C3EB432399424D
:105EA0001AD07F23B1FBF3F3C3EBC313994215D090
:105EB0003F20B1FBF0F0C0EB80100B1A5842584164
:105EC0007047B1F5FF7FE4D87E29EAD83E29EFD8A4
:105ED000002070470420704703207047022070475D
:105EE00070B5CB69002483F8244093F82520D2B202
:105EF000012A02D0022A0FD070BD596882B29A835B
:105F00008A68496883F8214002EBC002DA600A22FD
:105F100002FB0010986170BD596882B24D689A8387
:105F20000A2202FB005283F821409A6191F82F4027
:105F300091F82E50DD7783F820408968B0FBF4F2A9
:105F400004FB1200284401EBC20601EBC0001E61F5
:105F5000586170BDCA69C3B293776C235843CB684C
:105F600019181B5851609360704738B50D46144698
:105F70001146FFF7EFFF21462846BDE83840FFF7FE
:105F8000AFBF2DE9F0411F4604460D46904612F082
:105F9000F0F94246064629462046FFF79FFC204678
:105FA0003A462946FFF760FC3046BDE8F04112F062
:105FB000E4B910B504460068C37B012B1AD1002355
:105FC0001A4690F86C10C06DFFF7DBFF236893F85A
:105FD0007130012B0ED12046FDF7C8FB206890F8E8
:105FE0007830012B06D1002390F86E10006E1A460F
:105FF000FFF7C7FF2068037C012B10D100231A464E
:1060000090F86F10406EFFF7BCFF2068002390F8F7
:106010007010806E1A46BDE81040FFF7B2BF10BD89
:106020002DE9F0410C46074690461E4612F0A1F9B4
:10603000072C054604D94FF47B71174814F0AEFACB
:10604000164A136893F87D30FB58A100CB4003F04B
:106050000F03072CC8F80030904604D940F2BF2146
:106060000D4814F09BFAD8F800309A695B69BF1AA2
:10607000FF093F01FA18032C92BFFB585368043CF8
:10608000E40023FA04F404F01F0434702846BDE849
:10609000F04112F072B900BF169D0210748C000816
:1060A00030B504460068C37B87B00025012B0295FC
:1060B0000395049505958DF804508DF805508DF8DD
:1060C00006508DF8075033D190F86C10C06D0DF16B
:1060D000050303AAFFF7A4FF20682B4690F86C1075
:1060E000C06D0622FFF74DFF2368D86D93F86C1042
:1060F000FFF71CFC206890F87130012B18D190F844
:106100007830012B14D190F86E10006E01AB02AA0A
:10611000FFF786FF20682B4690F86E10006E06226F
:10612000FFF72FFF236893F86E10186EFFF7FEFB42
:106130002068037C012B2CD190F86F10406E0DF17C
:10614000060304AAFFF76CFF2068062290F86F1080
:10615000406E0023FFF715FF236893F86F10586E09
:10616000FFF7E4FB20680DF1070390F87010806ED4
:1061700005AAFFF755FF2068002390F87010806E85
:106180000622FFF7FEFE236893F87010986EFFF763
:10619000CDFB012014F0FAF92068C37B012B18D144
:1061A0009DF8053090F86C10039AC06DFFF7E9FE7A
:1061B000206890F87130012B0BD190F87830012BCA
:1061C00007D190F86E109DF80430029A006EFFF728
:1061D000D8FE2068037C012B10D190F86F109DF839
:1061E0000630049A406EFFF7CCFE20689DF8073019
:1061F00090F87010059A806EFFF7C3FE07B030BDAF
:10620000F0B50A68137DD27C032A09D812B9072B8E
:1062100011D9F0BD012A04D10F2B0CD90F2B2DD988
:10622000F0BD022A04D1032B05D9032B26D9F0BDDA
:10623000002B40F08E805149096891F871608D689B
:1062400002F00304B44091F870601E4046F08046AE
:106250003443012AC5F8004445D862BB072BDFD878
:10626000FF280BD8B1F874408968214401EB830101
:106270000C6824F47F4444EA002008603F490C681D
:1062800094F87050A66894F8717094F8731094F8AC
:106290007240032000FA01F105FA04F4214341F0B1
:1062A00000412B4002400B43BA401343C6F8003470
:1062B000D6F80034F0BD0F2B5CD8B0F5803F0FD27C
:1062C000B1F876408968214401EB83012C4C0D68BC
:1062D00004EA002025F47F0424F47F44204308606E
:1062E000012A3DD1CAE7022A1FD1032B9DD8B0F560
:1062F000803F9AD2B1F878508E681CB205EB060E3A
:106300001F4E5EF8247006EA002027F47F0626F46C
:106310007F4630434EF824008968294451F8240010
:1063200020F0F80041F824007FE7032A11D1EBB9EF
:10633000B0F1807FA2D2B1F87A508E68AC59E4B245
:1063400044EA0020A8518868295821F0F801295012
:1063500094E712B9072B91D9F0BD012A3FF45EAF43
:10636000022A3FF462AF032A7FF45AAF002B7FF476
:1063700057AF83E7012AF3D1F0BD00BF748C00084A
:1063800000FFFF001AB14843B0FBF2F070474FF036
:10639000FF3070472DE9F041DC681F691D686C26ED
:1063A0004FF0300E06FB00460EFB0070012A0EBFB8
:1063B000838895F88E30C2887468B6F82C80AE89D0
:1063C00002BF9A4095F8823002F1FF328B4238BF0B
:1063D000C81A0B444FF0640128BF00208B4228BF2D
:1063E0000B4650435A436B7CB0FBF1F7012BB2FBD9
:1063F000F1F24FF00A034FF000010CBF4FF0030C15
:106400004FF0010C5E4308461D46002308E005FBE3
:1064100003FE34F80EE077450BD8724509D30133FB
:106420004345F4D30131CBB29C453444EDD8BDE8AB
:10643000F0810620F6E740F6BD2398420BD840F6DF
:10644000970398420AD8B0F5E16F40F28C4038BF0C
:106450004FF44870704740F6550070474FF4C860DD
:106460007047A0F51670904228BF104649010139C7
:106470000130B1FBF0F01F2828BF1F20704700003B
:106480002DE9F84305680646E87B012840F0E281E3
:10649000E97E95F82320B368914220D12F7F95F8AB
:1064A0006C40A7421BD183F86C00002795F8782038
:1064B000012A0BD195F86D00B368814236D12C7F4B
:1064C00095F86E108C4231D183F86D20B46894F841
:1064D0006C20012A4CD0032A55D0102355E0687F48
:1064E000904208D1AC7F95F86C00844203D102221F
:1064F00083F86C20D9E7E87F904207D195F82040D7
:1065000095F86C00844201D10322F1E795F821004F
:10651000904207D195F8220095F86C20904201D165
:106520000422E5E7012783F86C70BFE7884CE96E29
:10653000EA69214022408A4201D10222C4E7EA7F6F
:10654000824207D195F8200095F86E20904201D143
:106550000322B9E72A6A22F07F4222F0FF02914229
:1065600001D10422B0E7022283F86D200127ADE7B4
:10657000626495F87230022B09D0032B32D00E23BF
:106580002360002305E04FF480736364F1E7002388
:10659000236084F86E3000236360AB7D6968012B53
:1065A00008BF6360736893F82430B1FBF3F1694B63
:1065B000994263681AD943F040036360636895F8B1
:1065C000731043F0004343F4805343EA8123636034
:1065D000012A4FF00003A360E3600FD0032A37D0F5
:1065E000102337E0062323600A23D2E75A4881426A
:1065F0008CBF43F0300343F02003DEE7E26095F800
:106600007130002B00F07D814FF48031A1604FF498
:106610008831216195F87A00810141EA00116161B8
:1066200095F87B10A161012B19D12989B1F5FA6F79
:1066300012D2E36100212162ABB12989B1F5FA6F71
:1066400095F87C100DD201290DD1444921620AE050
:106650004FF48073E360D2E70221E161EAE70021B1
:10666000FBE70029F1D00621A1620021616263B13C
:1066700095F8780095F87C10002852D001290CBFBD
:106680004FF4C0414FF4C06161620121E16295F8AD
:106690007CE08E4508BF1121216300216163A16365
:1066A000A97B95F880906FF02F004FF0300818FB11
:1066B00001084FF06C0C6FF06B001CFB010C11F12A
:1066C000FF3135D205EBC909BEF1010FD9F824100D
:1066D000A163616302BF41F480716163A163616B77
:1066E000A06B41F0877141F48031616340F4202157
:1066F000A16395F8851011B140F08570A063002169
:10670000E163216473B395F8781059B394F86D1070
:10671000022940F0EF80124AE26341F21012226433
:1067200026E001290CBF4FF4A4414FF41451ABE70C
:10673000F0686044ACF16C0C90F86A00012804BF6A
:1067400030694044A8F1300808BF80F82290B6E7CD
:1067500000FFFF0000366E01001BB70000000301C0
:1067600010000100022AD8D094F86D20022AD4D05B
:10677000BEF1010F59D1002B55D0634BB5F87420F1
:10678000A3641AB92889FFF756FE0246EB7D002B59
:1067900051D14FF448712889FFF763FEC0B2421C03
:1067A000530803F5C843B3FBF2F3A4F8703084F840
:1067B0006F00000240F04100E0643168B368CA7DB8
:1067C000002A49D041F641725A664FF480129A6607
:1067D0008C7B6FF02F02302010FB04204FF06C0EEA
:1067E0006FF06B021EFB042E14F1FF343AD20A7CC8
:1067F000012A7CD1454A1A65203A5A658A7D1AB128
:10680000434A1A65203A5A654868424C5A6DA0427C
:1068100006D9756895F82550B0FBF5F0A0423FD831
:1068200042F0200243E03C4BA8E70BB13B4BA5E70D
:106830004FF04873A2E7012B0AD14FF496612889E3
:10684000FFF70FFEC0B2421C530803F51643AAE738
:106850001F20ACE70027B0E741F241525A664FF0E3
:106860008052B4E7F268724492F86A20012A0BD190
:1068700035690544B5F804C002FA0CF2013AEA8021
:106880003038AEF16C0EAFE7022AF9D1326902441A
:10689000D589A5F1020C958815FB0CF5D580EFE79D
:1068A0001F4CA04294BF42F0300242F040025A65B1
:1068B00091F8920091F89040020142EA800202436E
:1068C00042EA801242EA044242EA84429A6591F81E
:1068D000930091F89140DA65010141EA800101439A
:1068E00041EA801141EA044141EA8441196638468F
:1068F000BDE8F883022A3FF410AFBEF1010F95D135
:106900003BE74FF4805184E68F90210320100C80E8
:1069100021100C80001BB700000021038090200391
:1069200000366E0138B50446FFF7AAFD054620463D
